:0400000086EF01F096
:10000800FACF01F0FBCF02F0E9CF03F0EACF04F01A
:10001800E1CF05F0E2CF06F0D9CF07F0DACF08F04C
:10002800F3CF09F0F4CF0AF0F6CF0BF0F7CF0CF0CE
:10003800F8CF0DF0F5CF0EF0F2B8F2A203D0FFEC36
:1000480010F00BD0F0B6F0A003D0FBEC10F005D008
:10005800F0B8F0A202D0F7EC10F0F2A486D0630E4C
:10006800D76EBF0ED66EF2940001C081010E00015A
:10007800B627000E0001B7230001B8230001B923F9
:100088000001CA51D8B408D00001CA070001CA67E4
:1000980003D0010E0001DE6F0001CB51D8B408D0A7
:1000A8000001CB070001CB6703D0010E0001E56F0B
:1000B8000001FE51D8B402D00001FE070001FE5134
:1000C800320AD8A402D00001C0750001FE670BD027
:1000D800640E0001FE6F0001C0770001FF51D8B423
:1000E80002D00001FF070001FD51D8B402D0000181
:1000F800FD070001FD6705D00A0E0001FD6F000134
:10010800C0730001C951D8B430D0000E0001C96FC6
:10011800000E116E27D01150020D0001A20EF3241B
:10012800D96E0001000EF420DA6EDECF0FF0DDCFBD
:1001380010F010500F10D8B406D00F06D8A0100633
:10014800010E0001C96F1150020D0001A20EF32427
:10015800D96E0001000EF420DA6E0FC0DEFF10C069
:10016800DDFF112A090E1164D6D79EAA31D0AECF71
:10017800DCF05F0E4C5CD8B00ED04C50010D010184
:10018800000EF324D96E0101010EF420DA6E00018D
:10019800DCC0DFFF4C2A4C50010D0101000EF32496
:1001A800D96E0101010EF420DA6E000EDF6E000137
:1001B800DC510D0AD8A402D00001DA2B0001DC5171
:1001C8000A0AD8A402D00001DB2B0A0E0001CA6F6C
:1001D8009DB89EA820D00001E051010D0001600EDD
:1001E800F324D96E0001000EF420DA6EDF50AD6EF4
:1001F8000001E02B0001E051200AD8A403D0000E32
:100208000001E06F0001DF070001DF6704D0000E86
:100218000001E06F9D98A4AA35D071A202D0719810
:10022800718874CFE3F05F0E4D5CD8B00ED04D509E
:10023800010D0101600EF324D96E0101010EF420B5
:10024800DA6E0001E3C0DFFF4D2A4D50010D0101B8
:10025800600EF324D96E0101010EF420DA6E000E4F
:10026800DF6E0001E3510D0AD8A402D00001E12B92
:100278000001E3510A0AD8A402D00001E22B0A0EB9
:100288000001CB6FA3B8A4A820D00001E751010D4D
:100298000001810EF324D96E0001000EF420DA6EFD
:1002A800DF50736E0001E72B0001E751200AD8A444
:1002B80003D0000E0001E76F0001E6070001E667C2
:1002C80004D0000E0001E76FA3980EC0F5FF0DC023
:1002D800F8FF0CC0F7FF0BC0F6FF0AC0F4FF09C017
:1002E800F3FF08C0DAFF07C0D9FF06C0E2FF05C068
:1002F800E1FF04C0EAFF03C0E9FF02C0FBFF01C041
:08030800FAFF1100B1EF0FF044
:1006000000507265737320504231285242362920BF
:10061000746F2053544152540053657475702044D4
:100620006F6E65006261636B7761726400466F7222
:10063000776172640000176E3AD2166603D092900A
:10064000899012001650020AD8A403D09280899093
:1006500012001650030AD8A405D09280000EBFECF9
:1006600010F01200928089901200166603D09292C8
:10067000899212001650020AD8A403D0928289925D
:1006800012001650030AD8A405D09282010EBFECC6
:1006900010F01200928289921200166603D0929492
:1006A000899412001650020AD8A403D09284899427
:1006B00012001650030AD8A405D09284020EBFEC93
:1006C00010F01200928489941200166603D092965C
:1006D000899612001650020AD8A403D092868996F1
:1006E00012001650030AD8A405D09286030EBFEC60
:1006F00010F01200928689961200166603D0929826
:10070000899812001650020AD8A403D092888998BA
:100710001200928889981200166603D0929A899ADC
:1007200012001650020AD8A403D0928A899A1200A5
:100730001650030AD8A405D0928A040EBFEC10F01C
:100740001200928A899A1200166603D0929C899CA4
:1007500012001650020AD8A403D0928C899C120071
:10076000928C899C1200166603D0929E899E12007C
:100770001650020AD8A403D0928E899E1200928E3F
:10078000899E1200166603D093908A90120016502C
:10079000020AD8A403D093808A90120093808A9092
:1007A0001200166603D093928A9212001650020A23
:1007B000D8A403D093828A92120093828A92120064
:1007C000166603D093948A9412001650020AD8A495
:1007D00003D093848A94120093848A94120016663C
:1007E00003D093968A9612001650020AD8A403D01A
:1007F00093868A96120093868A961200166603D014
:1008000093988A9812001650020AD8A403D09388AD
:100810008A98120093888A981200166603D0939AD9
:100820008A9A12001650020AD8A403D0938A8A9A90
:100830001200938A8A9A1200166603D0939C8A9CAF
:1008400012001650020AD8A403D0938C8A9C12007E
:10085000938C8A9C1200166603D0939E8A9E120087
:100860001650020AD8A403D0938E8A9E1200938E4B
:100870008A9E1200166603D094908B901200165038
:10088000020AD8A403D094808B90120094808B909D
:100890001200166603D094928B9212001650020A30
:1008A000D8A403D094828B92120094828B9212006F
:1008B000166603D094948B9412001650020AD8A4A2
:1008C00003D094848B94120094848B941200166647
:1008D00003D094968B9612001650020AD8A403D027
:1008E00094868B96120094868B961200166603D01F
:1008F00094988B9812001650020AD8A403D09488BA
:100900008B98120094888B981200166603D0949AE4
:100910008B9A12001650020AD8A403D0948A8B9A9C
:100920001200948A8B9A1200166603D0949C8B9CBA
:1009300012001650020AD8A403D0948C8B9C12008B
:10094000948C8B9C1200166603D0949E8B9E120092
:100950001650020AD8A403D0948E8B9E1200948E57
:100960008B9E1200166603D095908C901200165044
:10097000020AD8A403D095808C90120095808C90A8
:100980001200166603D095928C9212001650020A3D
:10099000D8A403D095828C92120095828C9212007A
:1009A000166603D095948C9412001650020AD8A4AF
:1009B00003D095848C94120095848C941200166652
:1009C00003D095968C9612001650020AD8A403D034
:1009D00095868C96120095868C961200166603D02A
:1009E00095988C9812001650020AD8A403D09588C6
:1009F0008C98120095888C981200166603D0959AF0
:100A00008C9A12001650020AD8A403D0958A8C9AA8
:100A10001200958A8C9A1200166603D0959C8C9CC5
:100A200012001650020AD8A403D0958C8C9C120098
:100A3000958C8C9C1200166603D0959E8C9E12009D
:100A40001650020AD8A403D0958E8C9E1200958E63
:100A50008C9E1200166603D096908D901200165050
:100A6000020AD8A403D096808D90120096808D90B3
:100A70001200166603D096928D9212001650020A4A
:100A8000D8A403D096828D92120096828D92120085
:100A9000166603D096948D9412001650020AD8A4BC
:100AA00003D096848D94120096848D941200175072
:100AB000000AD8B4C2D5010AD8B4D7D5030AD8B42D
:100AC000ECD5010AD8B401D6070AD8B416D6010A63
:100AD000D8B422D6030AD8B437D6010AD8B443D63C
:100AE0000F0AD8B44FD6010AD8B45BD6030AD8B4DB
:100AF00067D6010AD8B473D6070AD8B47FD6010ADC
:100B0000D8B48BD6030AD8B497D6010AD8B4A3D6E2
:100B10001F0AD8B4AFD6010AD8B4BBD6030AD8B4DA
:100B2000C7D6010AD8B4D3D6070AD8B4DFD6010A8B
:100B3000D8B4EBD6030AD8B4F7D6010AD8B403D791
:100B40000F0AD8B40FD7010AD8B41BD7030AD8B4F8
:100B500027D7010AD8B433D7070AD8B43FD7010A38
:100B6000D8B44BD7030AD8B457D7010AD8B463D73F
:100B70003F0AD8B46FD7010AD8B47BD7030AD8A4E8
:100B8000120086D70101F06F000E0101F16F000E17
:100B90000101F26F000E0101F36F000E0101F46F0D
:100BA000000E0101E86F000E0101E96F000E010166
:100BB000EA6F000E0101EB6F000E0101E76F000EFE
:100BC0000101E66F000E0101E56F000E0101E46F07
:100BD000010E166E0101F0511BEC03F0000E010135
:100BE000E16F230E0101E06FE0C1D9FFE1C1DAFF3F
:100BF0000101DECFF1F10101DECFF2F10101DECF23
:100C0000F3F10101DECFF4F1040E0101E027000E43
:100C10000101E123F1C1E4F1F2C1E5F1F3C1E6F133
:100C2000F4C1E7F1F40E0101E45D010E0101E559A3
:100C3000D8B011D00101E751E611D8A40CD0400E74
:100C40000101F16F420E0101F26F0F0E0101F36F0E
:100C5000000E0101F46F4BEC10F01EC0E8F11FC054
:100C6000E9F120C0EAF121C0EBF1000ECF6E000ED9
:100C7000CE6E000E0101E76F000E0101E66F220447
:100C8000D8A4CFD00101F05157EC09F00009D8A445
:100C900057D00101E8C126F00101E9C127F00101A7
:100CA000EAC128F00101EBC129F0261E271E281EEB
:100CB000291E262A000E2722282229224BEC10F07A
:100CC0001EC02AF01FC02BF020C02CF021C02DF038
:100CD00026502A240101EC6F27502B200101ED6FD3
:100CE00028502C200101EE6F29502D200101EF6FBB
:100CF000ECC112F0EDC113F0EEC114F0EFC115F02C
:100D0000E80E166E030E176E000E186E000E196EAA
:100D1000E0EC0FF012C026F013C027F014C028F04A
:100D200015C029F00101F151265C0101F25127584B
:100D30000101F35128580101F4512958D8A0A2D734
:100D4000CD8066D09EA004D09E900101E64BE72B9B
:100D50000101E8C126F00101E9C127F00101EAC162
:100D600028F00101EBC129F0261E271E281E291E8E
:100D7000262A000E2722282229224BEC10F01EC022
:100D80002AF01FC02BF020C02CF021C02DF02650DF
:100D90002A240101EC6F27502B200101ED6F285010
:100DA0002C200101EE6F29502D200101EF6FECC1C5
:100DB00012F0EDC113F0EEC114F0EFC115F0E80E22
:100DC000166E030E176E000E186E000E196EE0EC14
:100DD0000FF012C026F013C027F014C028F015C081
:100DE00029F026500101F15D27500101F2592850E8
:100DF0000101F35929500101F459D8B009D0000E6E
:100E0000226E000E236E000E246E000E256E120060
:100E10000101F05157EC09F0266E2604D8B492D7A0
:100E2000D0D02266DBD00101F05157EC09F0266EDC
:100E30002604D8A457D00101E8C126F00101E9C178
:100E400027F00101EAC128F00101EBC129F0261EBB
:100E5000271E281E291E262A000E27222822292284
:100E60004BEC10F01EC02AF01FC02BF020C02CF05D
:100E700021C02DF026502A240101EC6F27502B2091
:100E80000101ED6F28502C200101EE6F29502D201B
:100E90000101EF6FECC112F0EDC113F0EEC114F0DF
:100EA000EFC115F0E80E166E030E176E000E186EE9
:100EB000000E196EE0EC0FF012C026F013C027F000
:100EC00014C028F015C029F00101F151265C010180
:100ED000F25127580101F35128580101F4512958C2
:100EE000D8A0A1D7CD8066D09EA004D09E9001014D
:100EF000E64BE72B0101E8C126F00101E9C127F02B
:100F00000101EAC128F00101EBC129F0261E271ECC
:100F1000281E291E262A000E2722282229224BECD1
:100F200010F01EC02AF01FC02BF020C02CF021C0F2
:100F30002DF026502A240101EC6F27502B200101AF
:100F4000ED6F28502C200101EE6F29502D2001015A
:100F5000EF6FECC112F0EDC113F0EEC114F0EFC170
:100F600015F0E80E166E030E176E000E186E000ECA
:100F7000196EE0EC0FF012C026F013C027F014C079
:100F800028F015C029F026500101F15D275001011C
:100F9000F25928500101F35929500101F459D8B0F0
:100FA00009D0000E226E000E236E000E246E000E7D
:100FB000256E12000101F05157EC09F00009D8B478
:100FC00093D7CD90CECFE2F1CFCFE3F10101E35142
:100FD0000101E56F0101E2510101E46F0101E651F8
:100FE000266E0101E751276E286A296A27C029F079
:100FF00026C028F0276A266A0101E45126242A6EB9
:101000000101E55127202B6E000E28202C6E000ECA
:1010100029202D6ED8902D322C322B322A322AC024
:1010200022F02BC023F02CC024F02DC025F012009C
:10103000136ED2D012B002D0899001D089801200F4
:1010400012B002D0899201D08982120012B002D06F
:10105000899401D08984120012B002D0899601D0FF
:101060008986120012B002D0899801D089881200B6
:1010700012B002D0899A01D0898A120012B002D02F
:10108000899C01D0898C120012B002D0899E01D0B7
:10109000898E120012B002D08A9001D08A8012008C
:1010A00012B002D08A9201D08A82120012B002D00D
:1010B0008A9401D08A84120012B002D08A9601D09C
:1010C0008A86120012B002D08A9801D08A88120053
:1010D00012B002D08A9A01D08A8A120012B002D0CD
:1010E0008A9C01D08A8C120012B002D08A9E01D054
:1010F0008A8E120012B002D08B9001D08B80120029
:1011000012B002D08B9201D08B82120012B002D0AA
:101110008B9401D08B84120012B002D08B9601D038
:101120008B86120012B002D08B9801D08B881200EF
:1011300012B002D08B9A01D08B8A120012B002D06A
:101140008B9C01D08B8C120012B002D08B9E01D0F0
:101150008B8E120012B002D08C9001D08C801200C5
:1011600012B002D08C9201D08C82120012B002D048
:101170008C9401D08C84120012B002D08C9601D0D5
:101180008C86120012B002D08C9801D08C8812008C
:1011900012B002D08C9A01D08C8A120012B002D008
:1011A0008C9C01D08C8C120012B002D08C9E01D08D
:1011B0008C8E120012B002D08D9001D08D80120062
:1011C00012B002D08D9201D08D82120012B002D0E6
:1011D0008D9401D08D8412001350000AD8B42AD700
:1011E000010AD8B42DD7030AD8B430D7010AD8B42D
:1011F00033D7070AD8B436D7010AD8B439D7030A87
:10120000D8B43CD7010AD8B43FD70F0AD8B442D7D4
:10121000010AD8B445D7030AD8B448D7010AD8B4CC
:101220004BD7070AD8B44ED7010AD8B451D7030A0E
:10123000D8B454D7010AD8B457D71F0AD8B45AD74C
:10124000010AD8B45DD7030AD8B460D7010AD8B46C
:1012500063D7070AD8B466D7010AD8B469D7030A96
:10126000D8B46CD7010AD8B46FD70F0AD8B472D7E4
:10127000010AD8B475D7030AD8B478D7010AD8B40C
:101280007BD7070AD8B47ED7010AD8B481D7030A1E
:10129000D8B484D7010AD8B487D73F0AD8B48AD73C
:1012A000010AD8B48DD7030AD8A412008FD7126EC2
:1012B000000E136EAFD0000E80B0010E136E14D16D
:1012C000000E80B2010E136E0FD1000E80B4010E1D
:1012D000136E0AD1000E80B6010E136E05D1000EFA
:1012E00080B8010E136E00D1000E80BA010E136E8D
:1012F000FBD0000E80BC010E136EF6D0000E80BE37
:10130000010E136EF1D0000E81B0010E136EECD001
:10131000000E81B2010E136EE7D0000E81B4010EF3
:10132000136EE2D0000E81B6010E136EDDD0000EFA
:1013300081B8010E136ED8D0000E81BA010E136E63
:10134000D3D0000E81BC010E136ECED0000E81BE34
:10135000010E136EC9D0000E82B0010E136EC4D000
:10136000000E82B2010E136EBFD0000E82B4010EC9
:10137000136EBAD0000E82B6010E136EB5D0000EF9
:1013800082B8010E136EB0D0000E82BA010E136E39
:10139000ABD0000E82BC010E136EA6D0000E82BE32
:1013A000010E136EA1D0000E83B0010E136E9CD0FF
:1013B000000E83B2010E136E97D0000E83B4010E9F
:1013C000136E92D0000E83B6010E136E8DD0000EF8
:1013D00083B8010E136E88D0000E83BA010E136E0F
:1013E00083D0000E83BC010E136E7ED0000E83BE30
:1013F000010E136E79D0000E84B0010E136E74D0FE
:10140000000E84B2010E136E6FD0000E84B4010E74
:10141000136E6AD01250000AD8B44DD7010AD8B45E
:101420004FD7030AD8B451D7010AD8B453D7070A03
:10143000D8B455D7010AD8B457D7030AD8B459D766
:10144000010AD8B45BD70F0AD8B45DD7010AD8B463
:101450005FD7030AD8B461D7010AD8B463D7070AA3
:10146000D8B465D7010AD8B467D7030AD8B469D706
:10147000010AD8B46BD71F0AD8B46DD7010AD8B403
:101480006FD7030AD8B471D7010AD8B473D7070A43
:10149000D8B475D7010AD8B477D7030AD8B479D7A6
:1014A000010AD8B47BD70F0AD8B47DD7010AD8B4C3
:1014B0007FD7030AD8B481D7010AD8B483D7070AE3
:1014C000D8B485D7010AD8B487D7030AD8B489D746
:1014D000010AD8B48BD73F0AD8B48DD7010AD8B443
:1014E0008FD7030AD8B491D7135012000001F4C06B
:1014F000F6F00001F76BF86B0001F3350001F637E9
:1015000001E3F7810001F6510101E56F0101E56793
:101510000DD0000E0001F26F000E0001F36F000EFF
:101520000001F46F000E0001F56F1200170E0001AC
:10153000F66F0001F2C0F7F00001F3C0F8F000010F
:10154000F4C0F9F00001F6290001FA6F05D000019E
:10155000D890F933F833F7330001FA2FF8D70001A8
:10156000F7510101E06F0001F38FFF0E0001F21748
:10157000FF0E0001F317000E0001F4170001F251F5
:101580000101E16F0001F3510101E26F0001F4512B
:101590000101E36F0101E46B8E0E0101E55F0101C2
:1015A000E5AF26D00101E551800A0001F66FF10E8A
:1015B000800A0001F65DD8B00DD0000E0001F26F78
:1015C000000E0001F36F000E0001F46F000E000129
:1015D000F56F12000101D8900101E4330101E333FA
:1015E0000101E2330101E1330101E53FF3D720D0EE
:1015F000170E0101E56519D0000E0001F26F000E13
:101600000001F36F000E0001F46F000E0001F56F92
:1016100012000101D8900101E1370101E237010117
:10162000E3370101E4370101E5070101E567F1D77F
:101630000101E051D8B40FD00101E41F0101E31F03
:101640000101E21F0101E16D000E0101E223010130
:10165000E3230101E423E1C1F2F0E2C1F3F0E3C1CD
:10166000F4F0E4C1F5F01200276E1FC012F020C0A4
:1016700013F021C014F022C015F00A0E166E000EF1
:10168000176E000E186E000E196E0FEC0FF012C0E0
:101690001FF013C020F014C021F015C022F0000E7E
:1016A000126E900E136ED00E146E030E156E1FC0C8
:1016B00016F020C017F021C018F022C019F00FEC6E
:1016C0000FF012C01FF013C020F014C021F015C09D
:1016D00022F01FC023F020C024F021C025F022C03A
:1016E00026F0030E05D0D89026322532243223323C
:1016F000E82EF9D723C01FF024C020F025C021F028
:1017000026C022F0050E1F241F6E000E2020206E22
:10171000000E2120216E000E2220226E1FC012F02A
:1017200020C013F021C014F022C015F00A0E166E6E
:10173000000E176E000E186E000E196E0FEC0FF0F3
:1017400012C01FF013C020F014C021F015C022F009
:101750001F06000E205A215A225A20C029F01FC00D
:1017600028F02704D8A405D029C0B0FF28C0AFFFB7
:10177000120029C076FF28C075FF120035C039F06D
:101780003A6A3B6A3434393601E33A803950000111
:10179000F06F0001F06707D0000E336E000E346E5C
:1017A000000E356E120038C039F03A6A3B6A3734A1
:1017B000393601E33A8039500001F16F0001F167D9
:1017C00007D0000E336E000E346E000E356E120020
:1017D000000E0001ED6F000E0001EE6F000E000123
:1017E000EF6F0001F151890F0001F05F35C0F1F09A
:1017F00038500001F11B800E0001F117348EFF0EEE
:101800003316FF0E3416000E3516378EFF0E3616C1
:10181000FF0E3716000E3816180E0001EC6F00018F
:10182000D8900001ED370001EE370001EF37365058
:10183000335C3750345838503558D8A008D036501B
:10184000335E3750345A3850355A0001ED81D89004
:101850003336343635360001EC2FE1D7EDC012F0C7
:10186000EEC013F0EFC014F0F0C015F0F1C016F0A8
:1018700026EC0EF012C033F013C034F014C035F073
:10188000120026C02AF02B6A2C6A25342A3601E37E
:101890002B802A502D6E2D6607D0000E246E000E70
:1018A000256E000E266E120029C02AF02B6A2C6AC3
:1018B00028342A3601E32B802A50326E326607D054
:1018C000000E246E000E256E000E266E12003250A1
:1018D0007B0F2D2626C032F02950321A800E321688
:1018E000258E288EFF0E2716FF0E2816000E2916AD
:1018F000000E2E6E000E2F6E000E306E070E316E33
:1019000024A006D027502E2628502F2229503022DE
:10191000D890263225322432D890273628362936D8
:10192000312EEED7090E316E24A006D027502E2678
:1019300028502F2229503022D890263225322432A6
:10194000D89030322F322E32312EEED72EC012F0F8
:101950002FC013F030C014F02DC015F032C016F0B7
:1019600026EC0EF012C024F013C025F014C026F0AF
:101970001200000E126E040E18EC08F00A0EE82E8B
:10198000FED700D0010E126E040E18EC08F0350ED2
:10199000E82EFED700F0000E126E040E18EC08F0D0
:1019A000010E226E050EC2EC05F022C0F9F123C033
:1019B000FAF124C0FBF125C0FCF1000E366E000EDA
:1019C000376E400E386E440E276E0B0E286E3D0E9D
:1019D000296EF9C11AF0FAC11BF0FBC11CF0FCC161
:1019E0001DF0C7EC0EF01AC024F01BC025F01CC07F
:1019F00026F041EC0CF024C033F025C034F026C0B2
:101A000035F0BEEC0BF033C0F2F034C0F3F035C06B
:101A1000F4F076EC0AF0F2C0F5F1F3C0F6F1F4C0A0
:101A2000F7F1F5C0F8F1F5C1FDF1F6C1FEF1FDC128
:101A30003CF0FEC13DF01200000E81EC10F00009F8
:101A4000D8B411D0460E1F6E000E206E000E216E0F
:101A5000000E226E000E50EC0FF0B9EC0CF03CC002
:101A6000FBF03DC0FCF0010E81EC10F00009D8B491
:101A70000CD0640E1F6E000E206E000E216E000E44
:101A8000226E010E50EC0FF08C7403EC11F0000983
:101A9000D8B409D08C760BEC10F00001CC6F0001AB
:101AA000CC5181EC0FF00001CD510001CC19D8B41C
:101AB00012000001CC51660AD8A409D0D0EC10F075
:101AC000060E156E2D0E146E66EC10F00DD0000192
:101AD000CC51620AD8A408D0AEEC10F0060E156EF8
:101AE000240E146E66EC10F0CCC0CDF01200BB6872
:101AF000000EBC6E9E921E0EBA6E1C0EBD6E000EC7
:101B0000B66E800EB76E010EB96E000EBF6E000E7F
:101B1000BE6EFC0E0F0149173C0E666E000E646E21
:101B2000800E656E010E636E000E676E000E686EAD
:101B3000E70E0F0149170C0E0F015D6F000E0F012C
:101B40005B6F800E0F015C6F010E0F015A6F000E6C
:101B50000F015F6F000E0F015E6F3F0E0F014917FF
:101B60001C0E0F01576F000E0F01586F000E0F0172
:101B7000596FFC0E0F014817000E166E120E1BEC6B
:101B800003F0000E166E0B0E1BEC03F0000E166E2B
:101B90000D0E1BEC03F0000E166E190E1BEC03F07D
:101BA0001200800E2A6E250E2B6E000E2C6E000E7B
:101BB0002D6E99EC10F077EC0DF0000E166E080EFD
:101BC0001BEC03F0000E166E090E1BEC03F0000E6A
:101BD000166E0A0E1BEC03F0000E166E0C0E1BECBC
:101BE00003F0010E166E0E0E1BEC03F0010E166EC6
:101BF0000F0E1BEC03F0000E166E040E1BEC03F030
:101C0000010E166E050E1BEC03F0F30E95168F0EEB
:101C10009416000E136E000E126E030E2FEC10F0D1
:101C2000000E136E000E126E020E2FEC10F0060E58
:101C3000156E190E146E66EC10F0060E156E010E80
:101C4000146E66EC10F081AC1200FDD71550D8B4BC
:101C500005D0125013101410D8A40CD0000E126E20
:101C6000000E136E000E146E1200152AD890143256
:101C700013321232000E1214176E000E1314186E67
:101C8000FE0E1414196E175018101910D8B40CD079
:101C9000ECD7152A010E1226000E1322000E142274
:101CA000D890143213321232000E1214176E000E36
:101CB0001314186EFF0E1414196E17501810191003
:101CC000D8B406D0E6D71506D89012361336143697
:101CD00013AEF9D715A0139ED890153215501412D3
:101CE0001650D8A4148E12C012F013C013F014C0F2
:101CF00014F01200700ED36E040ED26E400E9B6E66
:101D0000D2AEFED7000E0F01386F000E0F01396FF3
:101D1000000E0F013A6F000E0F013B6F000E0F0116
:101D20003C6FB00E0F01426F300EC16E830EC06E5D
:101D3000000E896E000E8A6E000E8B6E000E8C6E89
:101D4000000E8D6E000E126E0FD01250020D0001AB
:101D5000A20EF324D96E0001000EF420DA6E000EFC
:101D6000DE6E000EDD6E122A090E1264EED7000E32
:101D7000D56EF294F28AF1849E90000ECC6E320EF3
:101D8000CD6E910ED56EF28CD08EF28E1200000EBA
:101D9000236E8E0E226E1D50800A800F08E1000E09
:101DA0001C5C05E1000E1B5C02E1000E1A5CD8B061
:101DB00011D01D1E1C1E1B1E1A6C000E1B221C2285
:101DC0001D22010E236E06D0D8901D321C321B320C
:101DD0001A32222A000E1A141E6E000E1B141F6ED9
:101DE000000E1C14206EFF0E1D14216E21501E10BB
:101DF0001F102010D8A4E8D71AC012F01BC013F08F
:101E00001CC014F022C015F023C016F026EC0EF012
:101E100012C01AF013C01BF014C01CF01200000E08
:101E20001A6E000E1B6E000E1C6E000E1D6E1950F9
:101E3000161017101810D8B42AD0010E1E6E06D036
:101E4000D89016361736183619361E2A19AEF8D716
:101E5000D8901A361B361C361D361650125C175099
:101E600013581850145819501558D8A009D01650A6
:101E7000125E1750135A1850145A1950155A1A80D6
:101E8000D89019321832173216321E2EE1D71AC0E6
:101E900012F01BC013F01CC014F01DC015F012008E
:101EA000236E090E236401D012001FC012F020C05F
:101EB00013F021C014F022C015F00A0E166E000EA9
:101EC000176E000E186E000E196E0FEC0FF012C098
:101ED0001FF013C020F014C021F015C022F02350D1
:101EE000020D0001A20EF324D96E0001000EF420B1
:101EF000DA6E1FC0DEFF20C0DDFF010E0001C96FDA
:101F00001200136E0001E651D8B41CD00001E65156
:101F1000200AD8B4FBD7F29E0001E6510001E72564
:101F20001F0B126E1250010D0001810EF324D96EA9
:101F30000001000EF420DA6E13C0DFFF0001E62B73
:101F4000F28E1200A4A803D013C073FF1200010E7A
:101F50000001E66F000E0001E76F13C081F0A38857
:101F6000120001EE00F0E00EEE6AE806FDE100EE80
:101F700060F08C0EEE6AE806FDE100EE3EF0100E19
:101F8000EE6AE806FDE10A0EF66E220EF76E000E0E
:101F9000F86E0900F5CFFDF00900F5CFFEF009005D
:101FA000F5CFFFF0160EF66E220EF76E000EF86EED
:101FB0000900F5CF4EF0000EF86E0001E1EF10F0D1
:101FC000000E1A6E000E1B6E000E1C6E000E1D6EB3
:101FD00012A008D016501A2617501B2218501C2287
:101FE00019501D22D8901636173618361936D89043
:101FF00015321432133212321550121013101410FD
:10200000D8A4E6D71AC012F01BC013F01CC014F0FD
:102010001DC015F01200000E126E4D500001E45D5F
:10202000D8B01BD00001E451010D0101600EF32472
:10203000D96E0101010EF420DA6EDF50126E00013C
:10204000E42B4D500001E46308D0000E0001E46F62
:10205000000E4D6E000E0001E56F12501200146E5E
:102060001404D8A403D012C0BEFF12001450020AF8
:10207000D8A403D012C067FF12001450030AD8A4DA
:1020800003D012C05EFF12001450040AD8A412003C
:1020900012C058FF1200B6C012F0B7C013F0B8C09B
:1020A00014F0B9C015F00A0E166E000E176E000E71
:1020B000186E000E196EE0EC0FF012C01EF013C087
:1020C0001FF014C020F015C021F012000AD014C077
:1020D000F6FF15C0F7FF0800F55081EC0FF0144A29
:1020E000152A14C0F6FF15C0F7FF0800F5500009C7
:1020F000D8A4EDD70D0E81EC0FF00A0E81EC0FF095
:102100001200126E090E126402D0000E120012505C
:10211000020D0001A20EF324D96E0001000EF4207E
:10212000DA6EDE50DD10D8B402D0000E1200010EBF
:1021300012002AC01FF02BC020F02CC021F02DC0AF
:1021400022F0020E34EC0BF07086240E726E900EAC
:10215000716EA38AA398A588A58A12008A988A849A
:10216000000E136E1268030E2FEC10F08A908A8214
:10217000000E136E1268020E2FEC10F01200146E97
:1021800014C012F0010E136E122A02D0D89013362A
:10219000122EFCD71350156E15500F013813120074
:1021A0008A888A94000E136E1268030E2FEC10F0CA
:1021B0008A808A92000E136E1268020E2FEC10F0C5
:1021C00012007AEC0EF0D1EC0DF00400EDEC10F002
:1021D0001CEC0DF007EC11F0F8D70001C09F0001D6
:1021E000C0A112000001C0910001C08F1200F09246
:1021F00008EC11F01200F09009EC11F01200F292CC
:102200000AEC11F012004D5012000A643C0012005A
:082210001200120012000C0084
:020000040020DA
:08000000FFFFFFFFFFFFFFFF00
:020000040030CA
:0E000000FF251F3FFFBF85FF0FC00FE00F4021
:00000001FF
