:040000004DEF01F0CF
:10000800FACF2BF0FBCF2CF0E9CF2DF0EACF2EF072
:10001800E1CF2FF0E2CF30F0D9CF31F0DACF32F0A4
:10002800F3CF33F0F4CF34F0F6CF35F0F7CF36F026
:10003800F8CF37F0F5CF38F0F2B8F2A203D006ECDB
:100048000AF00BD0F0B6F0A003D002EC0AF005D00D
:10005800F0B8F0A202D0FEEC09F0F2A469D0630E69
:10006800D76EBF0ED66EF2940180010E0001B6273E
:10007800000E0001B7230001B8230001B923035083
:10008800D8B405D00306036602D0010E206E0450D2
:10009800D8B406D00406046603D0010E0001CD6F63
:1000A8004B50D8A44B064B50320AD8B401744B6657
:1000B80006D0640E4B6E01764C50D8A44C064A50BC
:1000C800D8A44A064A6603D00A0E4A6E0172025044
:1000D800D8B42ED0000E026E000E3B6E26D03B50D8
:1000E800020D0001A20EF324D96E0001000EF420C7
:1000F800DA6EDECF39F0DDCF3AF03A503910D8B4A5
:1001080005D03906D8A03A06010E026E3B50020D02
:100118000001A20EF324D96E0001000EF420DA6E5D
:1001280039C0DEFF3AC0DDFF3B2A090E3B64D7D752
:100138009EAA29D0AECF1DF05F0E1E5CD8B00DD0A0
:100148001E50010D0101000EF324D96E0101010EAC
:10015800F420DA6E1DC0DFFF1E2A1E50010D0101BA
:10016800000EF324D96E0101010EF420DA6E000EA0
:10017800DF6E1D500D0AD8B41B2A1D500A0AD8B4C8
:100188001C2A0A0E036E9DB89EA819D02250010D94
:100198000001600EF324D96E0001000EF420DA6E1F
:1001A800DF50AD6E222A2250200AD8A402D0000EB9
:1001B800226E2106216603D0000E226E9D98A4AA05
:1001C8002FD071A202D07198718874CF24F05F0E7D
:1001D800255CD8B00DD02550010D0101600EF32427
:1001E800D96E0101010EF420DA6E24C0DFFF252A42
:1001F8002550010D0101600EF324D96E0101010E95
:10020800F420DA6E000EDF6E24500D0AD8B4232ACB
:1002180024500A0AD8A402D00001CC2B0A0E046E7E
:10022800A3B8A4A819D02850010D0001810EF32409
:10023800D96E0001000EF420DA6EDF50736E282AA2
:100248002850200AD8A402D0000E286E2706276658
:1002580003D0000E286EA39838C0F5FF37C0F8FF0A
:1002680036C0F7FF35C0F6FF34C0F4FF33C0F3FFE4
:1002780032C0DAFF31C0D9FF30C0E2FF2FC0E1FF42
:100288002EC0EAFF2DC0E9FF2CC0FBFF2BC0FAFFF0
:06029800110034EF09F033
:100600000001000A006400E8031027536574757048
:1006100020446F6E652C5052455353205042312078
:10062000746F20636F6E74696E756500616E616CC6
:100630006F672072656164696E673A256400000027
:10064000416E3AD2406603D0929089901200405099
:10065000020AD8A403D09280899012004050030A65
:10066000D8A405D09280000EDBEC09F01200928035
:1006700089901200406603D09292899212004050F5
:10068000020AD8A403D09282899212004050030A31
:10069000D8A405D09282010EDBEC09F01200928200
:1006A00089921200406603D09294899412004050BF
:1006B000020AD8A403D09284899412004050030AFD
:1006C000D8A405D09284020EDBEC09F012009284CB
:1006D00089941200406603D0929689961200405089
:1006E000020AD8A403D09286899612004050030AC9
:1006F000D8A405D09286030EDBEC09F01200928696
:1007000089961200406603D0929889981200405052
:10071000020AD8A403D092888998120092888998F6
:100720001200406603D0929A899A12004050020A41
:10073000D8A403D0928A899A12004050030AD8A400
:1007400005D0928A040EDBEC09F01200928A899A95
:100750001200406603D0929C899C12004050020A0D
:10076000D8A403D0928C899C1200928C899C120090
:10077000406603D0929E899E12004050020AD8A47F
:1007800003D0928E899E1200928E899E120040663E
:1007900003D093908A9012004050020AD8A403D04C
:1007A00093808A90120093808A901200406603D052
:1007B00093928A9212004050020AD8A403D09382E6
:1007C0008A92120093828A921200406603D0939418
:1007D0008A9412004050020AD8A403D093848A94C9
:1007E000120093848A941200406603D093968A96EE
:1007F00012004050020AD8A403D093868A961200B1
:1008000093868A961200406603D093988A981200C5
:100810004050020AD8A403D093888A981200938883
:100820008A981200406603D0939A8A9A1200405028
:10083000020AD8A403D0938A8A9A1200938A8A9AC9
:100840001200406603D0939C8A9C12004050020A1A
:10085000D8A403D0938C8A9C1200938C8A9C12009B
:10086000406603D0939E8A9E12004050020AD8A48C
:1008700003D0938E8A9E1200938E8A9E1200406649
:1008800003D094908B9012004050020AD8A403D059
:1008900094808B90120094808B901200406603D05D
:1008A00094928B9212004050020AD8A403D09482F2
:1008B0008B92120094828B921200406603D0949423
:1008C0008B9412004050020AD8A403D094848B94D5
:1008D000120094848B941200406603D094968B96F9
:1008E00012004050020AD8A403D094868B961200BE
:1008F00094868B961200406603D094988B981200D1
:100900004050020AD8A403D094888B98120094888F
:100910008B981200406603D0949A8B9A1200405034
:10092000020AD8A403D0948A8B9A1200948A8B9AD4
:100930001200406603D0949C8B9C12004050020A27
:10094000D8A403D0948C8B9C1200948C8B9C1200A6
:10095000406603D0949E8B9E12004050020AD8A499
:1009600003D0948E8B9E1200948E8B9E1200406654
:1009700003D095908C9012004050020AD8A403D066
:1009800095808C90120095808C901200406603D068
:1009900095928C9212004050020AD8A403D09582FE
:1009A0008C92120095828C921200406603D095942E
:1009B0008C9412004050020AD8A403D095848C94E1
:1009C000120095848C941200406603D095968C9604
:1009D00012004050020AD8A403D095868C961200CB
:1009E00095868C961200406603D095988C981200DC
:1009F0004050020AD8A403D095888C98120095889C
:100A00008C981200406603D0959A8C9A1200405040
:100A1000020AD8A403D0958A8C9A1200958A8C9ADF
:100A20001200406603D0959C8C9C12004050020A34
:100A3000D8A403D0958C8C9C1200958C8C9C1200B1
:100A4000406603D0959E8C9E12004050020AD8A4A6
:100A500003D0958E8C9E1200958E8C9E120040665F
:100A600003D096908D9012004050020AD8A403D073
:100A700096808D90120096808D901200406603D073
:100A800096928D9212004050020AD8A403D096820A
:100A90008D92120096828D921200406603D0969439
:100AA0008D9412004050020AD8A403D096848D94ED
:100AB000120096848D9412004150000AD8B4C2D519
:100AC000010AD8B4D7D5030AD8B4ECD5010AD8B4F2
:100AD00001D6070AD8B416D6010AD8B422D6030A1A
:100AE000D8B437D6010AD8B443D60F0AD8B44FD6F3
:100AF000010AD8B45BD6030AD8B467D6010AD8B4C1
:100B000073D6070AD8B47FD6010AD8B48BD6030AA5
:100B1000D8B497D6010AD8B4A3D61F0AD8B4AFD692
:100B2000010AD8B4BBD6030AD8B4C7D6010AD8B4D0
:100B3000D3D6070AD8B4DFD6010AD8B4EBD6030A55
:100B4000D8B4F7D6010AD8B403D70F0AD8B40FD750
:100B5000010AD8B41BD7030AD8B427D7010AD8B4DE
:100B600033D7070AD8B43FD7010AD8B44BD7030A02
:100B7000D8B457D7010AD8B463D73F0AD8B46FD7CF
:100B8000010AD8B47BD7030AD8A4120086D7000183
:100B9000000E0001F76F0001F40E0001F66FB6D0F1
:100BA0000001FF51250AD8B40BD0F0C0D9FFF1C025
:100BB000DAFF0001FFC0DFFF0001F04BF12BA6D0F0
:100BC000000E0001F86F0001F2C0F6FF0001F3C053
:100BD000F7FF0001F24BF32B08000001F5CFFFF007
:100BE0000001FF51000AD8B4A1D0640AD8B403D0E0
:100BF0000D0AD8A48BD0F6C0D9FFF7C0DAFF0001E8
:100C0000DECFFAF00001DDCFFBF0020E0001F62787
:100C1000000E0001F7230001FB51800AF36E800EE5
:100C2000F35C000ED8B4FA5DD8B009D0030E000111
:100C3000F8130001FA6D0001FB1FD8B0FB2B010E69
:100C40000001FF6F0001FF51050AD8B41AD000015E
:100C5000FF51020D010EF324F66E060EF420F76E1E
:100C60000900F5CF48F00900F5CF49F048500001E0
:100C7000FA5D49500001FB59D8A003D00001FF2BB9
:100C8000E1D7F8C048F0030E4816D8B409D0F0C038
:100C9000D9FFF1C0DAFF2D0EDF6E0001F04BF12B12
:100CA000FFC0F9F02DD00001F951020D010EF3241F
:100CB000F66E060EF420F76E0900F5CF3EF00A003E
:100CC000F5CF3FF0FAC03CF0FBC03DF0E2EC08F09D
:100CD0003CC043F03DC044F0000E466E0A0E456E27
:100CE0005BEC09F04350300F0001FF6FF0C0D9FFFB
:100CF000F1C0DAFF0001FFC0DFFF0001F04BF12B74
:100D00000001F9070001F929D8A4CDD70001F2C0EC
:100D1000F6FF0001F3C0F7FF0001F24BF32B0800D0
:100D20000001F5CFFFF00001FF673AD7F0C0D9FF0F
:100D3000F1C0DAFF000EDF6E12000001F86FF0C0A4
:100D40003CF0F1C03DF0F2C03EF0F3C03FF00A0EBF
:100D5000406E000E416E000E426E000E436E3EEC81
:100D600008F03CC0F0F03DC0F1F03EC0F2F03FC0F2
:100D7000F3F0000E3C6E900E3D6ED00E3E6E030EF4
:100D80003F6EF0C040F0F1C041F0F2C042F0F3C05D
:100D900043F03EEC08F03CC0F0F03DC0F1F03EC046
:100DA000F2F03FC0F3F00001F0C0F4F00001F1C038
:100DB000F5F00001F2C0F6F00001F3C0F7F0030E09
:100DC00006D00001D890F733F633F533F433E82E2C
:100DD000F8D7F4C0F0F0F5C0F1F0F6C0F2F0F7C0CB
:100DE000F3F0050E0001F0250001F06F000E000188
:100DF000F1210001F16F000E0001F2210001F26FFC
:100E0000000E0001F3210001F36FF0C03CF0F1C0CF
:100E10003DF0F2C03EF0F3C03FF00A0E406E000E0F
:100E2000416E000E426E000E436E3EEC08F03CC078
:100E3000F0F03DC0F1F03EC0F2F03FC0F3F0000131
:100E4000F007000E0001F15B0001F25B0001F35BB3
:100E5000F1C0FAF0F0C0F9F00001F805D8A405D00F
:100E6000FAC0B0FFF9C0AFFF1200FAC076FFF9C0B8
:100E700075FF1200800E0001FB6F250E0001FC6F54
:100E8000000E0001FD6F000E0001FE6FC6EC09F0C0
:100E900097EC07F0000E406E080E20EC03F0000EF9
:100EA000406E090E20EC03F0000E406E0A0E20EC9E
:100EB00003F0000E406E0C0E20EC03F0010E406EAD
:100EC0000E0E20EC03F0010E406E0F0E20EC03F02E
:100ED000F30E95168F0E9416030E9612000E3D6EAD
:100EE000000E3C6E030E7CEC09F0000E3D6E000E11
:100EF0003C6E020E7CEC09F00001000E0001F16F67
:100F00000001D00E0001F06F060E0001F36F0B0E12
:100F10000001F26FC7EC05F00001000E3F6E00010A
:100F2000D00E3E6E98EC09F081AC1200FDD7BB6884
:100F3000000EBC6E9E921E0EBA6E1C0EBD6E000E92
:100F4000B66E800EB76E010EB96E000EBF6E000E4B
:100F5000BE6EFC0E0F0149173C0E666E000E646EED
:100F6000800E656E010E636E000E676E000E686E79
:100F7000E70E0F0149170C0E0F015D6F000E0F01F8
:100F80005B6F800E0F015C6F010E0F015A6F000E38
:100F90000F015F6F000E0F015E6F3F0E0F014917CB
:100FA0001C0E0F01576F000E0F01586F000E0F013E
:100FB000596FFC0E0F014817000E406E120E20EC08
:100FC00003F0000E406E0B0E20EC03F0000E406E9E
:100FD0000D0E20EC03F0000E406E190E20EC03F015
:100FE0001200700ED36E040ED26E400E9B6ED2AE07
:100FF000FED7000E0F01386F000E0F01396F000E83
:101000000F013A6F000E0F013B6F000E0F013C6F96
:10101000B00E0F01426F300EC16E830EC06E000E17
:10102000896E000E8A6E000E8B6E000E8C6E000EA6
:101030008D6E000E3C6E0FD03C50020D0001A20ED2
:10104000F324D96E0001000EF420DA6E000EDE6E7D
:10105000000EDD6E3C2A090E3C64EED7000ED56E04
:10106000F294F28AF1849E90000ECC6E320ECD6E18
:10107000910ED56EF28CD08EF28E1200000E446E60
:10108000000E456E000E466E000E476E4350401037
:1010900041104210D8B42AD0010E486E06D0D89024
:1010A0004036413642364336482A43AEF8D7D890C8
:1010B000443645364636473640503C5C41503D58F4
:1010C00042503E5843503F58D8A009D040503C5E53
:1010D00041503D5A42503E5A43503F5A4480D89066
:1010E0004332423241324032482EE1D744C03CF0D4
:1010F00045C03DF046C03EF047C03FF01200180E1C
:10110000416E0F013B89070E416409D04150180A16
:10111000D8B405D0000E3D6E000E3C6E1200414466
:10112000E846FC0B0109C26E00F000F000F000F090
:1011300000F000F000F000F000F000F000F000F02F
:1011400000F000F000F000F0C282C2B2FED7C4CFBF
:101150003EF00F0E3E163E503F6E406A3F50406ECE
:101160003F6AC3503F123FC03CF040C03DF0120008
:10117000040E7FEC08F03CC0C0F13DC0C1F100019D
:10118000000E0001F16F0001D00E0001F06F060E9D
:101190000001F36F2C0E0001F26FC0C1F4F0C1C169
:1011A000F5F0C7EC05F00001000E3F6E0001D00E17
:1011B0003E6E98EC09F0030E3D6EE80E3C6EB0EC0E
:1011C00009F01200000E426E000E416E3F503E10BC
:1011D000D8B41CD0010E406E04D0D8903E363F36B5
:1011E000402A3FAEFAD7D890413642363E503C5C5A
:1011F0003F503D58D8A005D03E503C5E3F503D5A30
:101200004180D8903F323E32402EEDD741C03CF075
:1012100042C03DF012003D6E2150D8B418D021508C
:10122000200AD8B4FCD7F29E215022241F0B3C6E1A
:101230003C50010D0001600EF324D96E0001000E38
:10124000F420DA6E3DC0DFFF212AF28E12009EA844
:1012500003D03DC0ADFF1200010E216E000E226EC4
:101260003DC060F09D88120001EE00F0C00EEE6AF5
:10127000E806FDE100EE60F0900EEE6AE806FDE1A2
:1012800000EE01F02A0EEE6AE806FDE1140EF66E9D
:10129000140EF76E000EF86E00EE4AF010EE04F039
:1012A0000900F5CFEEFFE550E150FAE1000EF86ECF
:1012B0000001ECEF09F046504510D8B418D0010EEB
:1012C000476E04D0D89045364636472A46AEFAD700
:1012D0004550435C46504458D8A004D04550435E26
:1012E0004650445AD89046324532472EF1D743C033
:1012F00043F044C044F012003E6E3E04D8A403D034
:101300003CC0BEFF12003E50020AD8A403D03CC02D
:1013100067FF12003E50030AD8A403D03CC05EFF12
:1013200012003E50040AD8A412003CC058FF12001C
:1013300009D03EC0D9FF3FC0DAFFDF500BEC09F007
:101340003E4A3F2A3EC0D9FF3FC0DAFFDF50D8A453
:10135000F0D70D0E0BEC09F00A0E0BEC09F01200A1
:1013600004000FD03C06D8A03D06040E3F6E100EC0
:101370003E6E03D03E06D8A03F063F503E10D8A494
:10138000F9D73D503C10D8B41200ECD7FBC0F0F0B8
:10139000FCC0F1F0FDC0F2F0FEC0F3F0010E9DECD8
:1013A00006F0B886240EAC6E900EAB6E9D8A9D98AA
:1013B0009F889F8A12003E6E3EC03CF0010E3D6E3B
:1013C0003C2A02D0D8903D363C2EFCD73D503F6E93
:1013D0003F500F0138131200F1EC07F03AEC07F020
:1013E0000400F8EC09F0B8EC08F00CEC0AF0F8D7BF
:1013F000019E01A012000190018E1200F0920DECEE
:101400000AF01200F0900EEC0AF01200F2920FECCB
:101410000AF012000A643C0C1200120012001200C2
:020000040020DA
:08000000FFFFFFFFFFFFFFFF00
:020000040030CA
:0E000000FF251F3FFFBF85FF0FC00FE00F4021
:00000001FF
