:040000004AEF01F0D2
:10000800FACF2FF0FBCF30F0E9CF31F0EACF32F062
:10001800E1CF33F0E2CF34F0D9CF35F0DACF36F094
:10002800F3CF37F0F4CF38F0F6CF39F0F7CF3AF016
:10003800F8CF3BF0F5CF3CF0F2B8F2A203D05DEC7C
:100048000CF00BD0F0B6F0A003D059EC0CF005D0B2
:10005800F0B8F0A202D055EC0CF0F2A468D0630E10
:10006800D76EBF0ED66EF2940180010E0001B6273E
:10007800000E0001B7230001B8230001B923045082
:10008800D8B405D00406046602D0010E226E0550CD
:10009800D8B405D00506056602D0010E2A6E4C506C
:1000A800D8A44C064C50320AD8B401744C6606D019
:1000B800640E4C6E01764D50D8A44D064B50D8A412
:1000C8004B064B6603D00A0E4B6E01720350D8B430
:1000D8002ED0000E036E000E3F6E26D03F50020D4C
:1000E8000001A20EF324D96E0001000EF420DA6E8E
:1000F800DECF3DF0DDCF3EF03E503D10D8B405D008
:100108003D06D8A03E06010E036E3F50020D0001C9
:10011800A20EF324D96E0001000EF420DA6E3DC061
:10012800DEFF3EC0DDFF3F2A090E3F64D7D79EAAF7
:1001380029D0AECF1FF05F0E205CD8B00DD0205074
:10014800010D0101000EF324D96E0101010EF42006
:10015800DA6E1FC0DFFF202A2050010D0101000EBA
:10016800F324D96E0101010EF420DA6E000EDF6E61
:100178001F500D0AD8B41D2A1F500A0AD8B41E2AC7
:100188000A0E046E9DB89EA819D02450010D0001D6
:10019800600EF324D96E0001000EF420DA6EDF50F1
:1001A800AD6E242A2450200AD8A402D0000E246E52
:1001B8002306236603D0000E246E9D98A4AA2DD092
:1001C80071A202D07198718874CF27F05F0E285CF5
:1001D800D8B00DD02850010D0101600EF324D96E5E
:1001E8000101010EF420DA6E27C0DFFF282A28500B
:1001F800010D0101600EF324D96E0101010EF420F6
:10020800DA6E000EDF6E27500D0AD8B4252A275063
:100218000A0AD8B4262A0A0E056EA3B8A4A819D0CB
:100228002C50010D0001810EF324D96E0001000E3F
:10023800F420DA6EDF50736E2C2A2C50200AD8A4D2
:1002480002D0000E2C6E2B062B6603D0000E2C6EEF
:10025800A3983CC0F5FF3BC0F8FF3AC0F7FF39C090
:10026800F6FF38C0F4FF37C0F3FF36C0DAFF35C0F9
:10027800D9FF34C0E2FF33C0E1FF32C0EAFF31C02A
:10028800E9FF30C0FBFF2FC0FAFF11005BEF0BF056
:100600000050524553532050423220746F205354AF
:100610004152540043686172207265766569636572
:10062000643A25630000456E3AD2446603D0929046
:10063000899012004450020AD8A403D09280899075
:1006400012004450030AD8A405D09280000E12EC88
:100650000CF01200928089901200446603D09292AE
:10066000899212004450020AD8A403D0928289923F
:1006700012004450030AD8A405D09282010E12EC55
:100680000CF01200928289921200446603D0929478
:10069000899412004450020AD8A403D09284899409
:1006A00012004450030AD8A405D09284020E12EC22
:1006B0000CF01200928489941200446603D0929642
:1006C000899612004450020AD8A403D092868996D3
:1006D00012004450030AD8A405D09286030E12ECEF
:1006E0000CF01200928689961200446603D092980C
:1006F000899812004450020AD8A403D0928889989D
:100700001200928889981200446603D0929A899ABE
:1007100012004450020AD8A403D0928A899A120087
:100720004450030AD8A405D0928A040E12EC0CF0AF
:100730001200928A899A1200446603D0929C899C86
:1007400012004450020AD8A403D0928C899C120053
:10075000928C899C1200446603D0929E899E12005E
:100760004450020AD8A403D0928E899E1200928E21
:10077000899E1200446603D093908A9012004450E0
:10078000020AD8A403D093808A90120093808A90A2
:100790001200446603D093928A9212004450020AD7
:1007A000D8A403D093828A92120093828A92120074
:1007B000446603D093948A9412004450020AD8A449
:1007C00003D093848A94120093848A94120044661E
:1007D00003D093968A9612004450020AD8A403D0FC
:1007E00093868A96120093868A961200446603D0F6
:1007F00093988A9812004450020AD8A403D0938890
:100800008A98120093888A981200446603D0939ABB
:100810008A9A12004450020AD8A403D0938A8A9A72
:100820001200938A8A9A1200446603D0939C8A9C91
:1008300012004450020AD8A403D0938C8A9C120060
:10084000938C8A9C1200446603D0939E8A9E120069
:100850004450020AD8A403D0938E8A9E1200938E2D
:100860008A9E1200446603D094908B9012004450EC
:10087000020AD8A403D094808B90120094808B90AD
:100880001200446603D094928B9212004450020AE4
:10089000D8A403D094828B92120094828B9212007F
:1008A000446603D094948B9412004450020AD8A456
:1008B00003D094848B94120094848B941200446629
:1008C00003D094968B9612004450020AD8A403D009
:1008D00094868B96120094868B961200446603D001
:1008E00094988B9812004450020AD8A403D094889C
:1008F0008B98120094888B981200446603D0949AC7
:100900008B9A12004450020AD8A403D0948A8B9A7E
:100910001200948A8B9A1200446603D0949C8B9C9C
:1009200012004450020AD8A403D0948C8B9C12006D
:10093000948C8B9C1200446603D0949E8B9E120074
:100940004450020AD8A403D0948E8B9E1200948E39
:100950008B9E1200446603D095908C9012004450F8
:10096000020AD8A403D095808C90120095808C90B8
:100970001200446603D095928C9212004450020AF1
:10098000D8A403D095828C92120095828C9212008A
:10099000446603D095948C9412004450020AD8A463
:1009A00003D095848C94120095848C941200446634
:1009B00003D095968C9612004450020AD8A403D016
:1009C00095868C96120095868C961200446603D00C
:1009D00095988C9812004450020AD8A403D09588A8
:1009E0008C98120095888C981200446603D0959AD2
:1009F0008C9A12004450020AD8A403D0958A8C9A8B
:100A00001200958A8C9A1200446603D0959C8C9CA7
:100A100012004450020AD8A403D0958C8C9C12007A
:100A2000958C8C9C1200446603D0959E8C9E12007F
:100A30004450020AD8A403D0958E8C9E1200958E45
:100A40008C9E1200446603D096908D901200445004
:100A5000020AD8A403D096808D90120096808D90C3
:100A60001200446603D096928D9212004450020AFE
:100A7000D8A403D096828D92120096828D92120095
:100A8000446603D096948D9412004450020AD8A470
:100A900003D096848D94120096848D941200455054
:100AA000000AD8B4C2D5010AD8B4D7D5030AD8B43D
:100AB000ECD5010AD8B401D6070AD8B416D6010A73
:100AC000D8B422D6030AD8B437D6010AD8B443D64C
:100AD0000F0AD8B44FD6010AD8B45BD6030AD8B4EB
:100AE00067D6010AD8B473D6070AD8B47FD6010AEC
:100AF000D8B48BD6030AD8B497D6010AD8B4A3D6F3
:100B00001F0AD8B4AFD6010AD8B4BBD6030AD8B4EA
:100B1000C7D6010AD8B4D3D6070AD8B4DFD6010A9B
:100B2000D8B4EBD6030AD8B4F7D6010AD8B403D7A1
:100B30000F0AD8B40FD7010AD8B41BD7030AD8B408
:100B400027D7010AD8B433D7070AD8B43FD7010A48
:100B5000D8B44BD7030AD8B457D7010AD8B463D74F
:100B60003F0AD8B46FD7010AD8B47BD7030AD8A4F8
:100B7000120086D7436ED2D042B002D0899001D005
:100B80008980120042B002D0899201D0898212007D
:100B900042B002D0899401D08984120042B002D0C0
:100BA000899601D08986120042B002D0899801D07E
:100BB0008988120042B002D0899A01D0898A120035
:100BC00042B002D0899C01D0898C120042B002D080
:100BD000899E01D0898E120042B002D08A9001D045
:100BE0008A80120042B002D08A9201D08A8212001A
:100BF00042B002D08A9401D08A84120042B002D05E
:100C00008A9601D08A86120042B002D08A9801D01A
:100C10008A88120042B002D08A9A01D08A8A1200D1
:100C200042B002D08A9C01D08A8C120042B002D01D
:100C30008A9E01D08A8E120042B002D08B9001D0E1
:100C40008B80120042B002D08B9201D08B821200B6
:100C500042B002D08B9401D08B84120042B002D0FB
:100C60008B9601D08B86120042B002D08B9801D0B7
:100C70008B88120042B002D08B9A01D08B8A12006E
:100C800042B002D08B9C01D08B8C120042B002D0BB
:100C90008B9E01D08B8E120042B002D08C9001D07E
:100CA0008C80120042B002D08C9201D08C82120053
:100CB00042B002D08C9401D08C84120042B002D099
:100CC0008C9601D08C86120042B002D08C9801D054
:100CD0008C88120042B002D08C9A01D08C8A12000B
:100CE00042B002D08C9C01D08C8C120042B002D059
:100CF0008C9E01D08C8E120042B002D08D9001D01B
:100D00008D80120042B002D08D9201D08D821200EF
:100D100042B002D08D9401D08D8412004350000A5D
:100D2000D8B42AD7010AD8B42DD7030AD8B430D7FB
:100D3000010AD8B433D7070AD8B436D7010AD8B4D1
:100D400039D7030AD8B43CD7010AD8B43FD70F0A21
:100D5000D8B442D7010AD8B445D7030AD8B448D783
:100D6000010AD8B44BD7070AD8B44ED7010AD8B471
:100D700051D7030AD8B454D7010AD8B457D71F0A99
:100D8000D8B45AD7010AD8B45DD7030AD8B460D70B
:100D9000010AD8B463D7070AD8B466D7010AD8B411
:100DA00069D7030AD8B46CD7010AD8B46FD70F0A31
:100DB000D8B472D7010AD8B475D7030AD8B478D793
:100DC000010AD8B47BD7070AD8B47ED7010AD8B4B1
:100DD00081D7030AD8B484D7010AD8B487D73F0A89
:100DE000D8B48AD7010AD8B48DD7030AD8A4120080
:100DF0008FD7406E000E416EAFD0000E80B0010E56
:100E0000416E14D1000E80B2010E416E0FD1000E62
:100E100080B4010E416E0AD1000E80B6010E416E03
:100E200005D1000E80B8010E416E00D1000E80BACF
:100E3000010E416EFBD0000E80BC010E416EF6D05B
:100E4000000E80BE010E416EF1D0000E81B0010E89
:100E5000416EECD0000E81B2010E416EE7D0000E63
:100E600081B4010E416EE2D0000E81B6010E416EDA
:100E7000DDD0000E81B8010E416ED8D0000E81BACF
:100E8000010E416ED3D0000E81BC010E416ECED05A
:100E9000000E81BE010E416EC9D0000E82B0010E5F
:100EA000416EC4D0000E82B2010E416EBFD0000E62
:100EB00082B4010E416EBAD0000E82B6010E416EB0
:100EC000B5D0000E82B8010E416EB0D0000E82BACD
:100ED000010E416EABD0000E82BC010E416EA6D059
:100EE000000E82BE010E416EA1D0000E83B0010E35
:100EF000416E9CD0000E83B2010E416E97D0000E61
:100F000083B4010E416E92D0000E83B6010E416E85
:100F10008DD0000E83B8010E416E88D0000E83BACA
:100F2000010E416E83D0000E83BC010E416E7ED057
:100F3000000E83BE010E416E79D0000E84B0010E0A
:100F4000416E74D0000E84B2010E416E6FD0000E5F
:100F500084B4010E416E6AD04050000AD8B44DD717
:100F6000010AD8B44FD7030AD8B451D7010AD8B46C
:100F700053D7070AD8B455D7010AD8B457D7030AAC
:100F8000D8B459D7010AD8B45BD70F0AD8B45DD703
:100F9000010AD8B45FD7030AD8B461D7010AD8B41C
:100FA00063D7070AD8B465D7010AD8B467D7030A4C
:100FB000D8B469D7010AD8B46BD71F0AD8B46DD793
:100FC000010AD8B46FD7030AD8B471D7010AD8B4CC
:100FD00073D7070AD8B475D7010AD8B477D7030AEC
:100FE000D8B479D7010AD8B47BD70F0AD8B47DD743
:100FF000010AD8B47FD7030AD8B481D7010AD8B47C
:1010000083D7070AD8B485D7010AD8B487D7030A8B
:10101000D8B489D7010AD8B48BD73F0AD8B48DD7B2
:10102000010AD8B48FD7030AD8B491D7415012001F
:10103000486EF2C040F0F3C041F0F4C042F0F5C099
:1010400043F00A0E446E000E456E000E466E000E12
:10105000476EF4EC09F040C0F2F041C0F3F042C03A
:10106000F4F043C0F5F0000E406E900E416ED00ECD
:10107000426E030E436EF2C044F0F3C045F0F4C07C
:1010800046F0F5C047F0F4EC09F040C0F2F041C082
:10109000F3F042C0F4F043C0F5F00001F2C0F6F006
:1010A0000001F3C0F7F00001F4C0F8F00001F5C052
:1010B000F9F0030E06D00001D890F933F833F73376
:1010C000F633E82EF8D7F6C0F2F0F7C0F3F0F8C028
:1010D000F4F0F9C0F5F0050E0001F2250001F26F01
:1010E000000E0001F3210001F36F000E0001F42156
:1010F0000001F46F000E0001F5210001F56FF2C050
:1011000040F0F3C041F0F4C042F0F5C043F00A0EE5
:10111000446E000E456E000E466E000E476EF4ECF7
:1011200009F040C0F2F041C0F3F042C0F4F043C017
:10113000F5F00001F207000E0001F35B0001F45B23
:101140000001F55BF3C04AF0F2C049F04804D8A4AE
:1011500005D04AC0B0FF49C0AFFF12004AC076FFB9
:1011600049C075FF120033EC0CF0000E426E010E08
:10117000BAEC05F0010E426E020EBAEC05F0010E5B
:10118000426E180EBAEC05F0000E416EC80E406EAD
:10119000010EA0EC0BF0000E416EC80E406E020E68
:1011A000A0EC0BF0000E416E000E406E030EA0ECA2
:1011B0000BF00B0E416EB80E406ED4EC0BF0FFEC52
:1011C0000BF0FFD70001F6C040F0416A010EA0EC21
:1011D0000BF00001F6C040F0416A020EA0EC0BF0EB
:1011E0000001F6C040F0416A030EA0EC0BF0000EC7
:1011F000416E640E406ED4EC0BF00001F62B000142
:10120000F629D8B422D0DED70001F7C040F0416AF9
:10121000010EA0EC0BF00001F7C040F0416A020E95
:10122000A0EC0BF00001F7C040F0416A030EA0EC07
:101230000BF0000E416E640E406ED4EC0BF000011A
:10124000F72B0001F729D8A4DFD7090EBCEC0BF06F
:101250000009D8B41200FA0E0001F26F000E00016E
:10126000F36F000E0001F46F000E0001F56F090E20
:10127000D1EC0AF00E0EF9EC06F0010A426E0E0EE9
:10128000BAEC05F01200BB68000EBC6E9E921E0EFA
:10129000BA6E1C0EBD6E000EB66E800EB76E010EDD
:1012A000B96E000EBF6E000EBE6EFC0E0F01491728
:1012B0003C0E666E000E646E800E656E010E636EEF
:1012C000000E676E000E686EE70E0F0149170C0ED8
:1012D0000F015D6F000E0F015B6F800E0F015C6FE1
:1012E000010E0F015A6F000E0F015F6F000E0F010C
:1012F0005E6F3F0E0F0149171C0E0F01576F000E56
:101300000F01586F000E0F01596FFC0E0F014817A7
:10131000000E446E120E13EC03F0000E446E0B0E22
:1013200013EC03F0000E446E0D0E13EC03F0000EF0
:10133000446E190E13EC03F01200800E0001FA6FD8
:10134000250E0001FB6F000E0001FC6F000E000176
:10135000FD6FEAEC0BF0010E446E110E13EC03F07E
:10136000000E446E0E0E13EC03F0000E446E0F0ED2
:1013700013EC03F0000E446E0A0E13EC03F0000EA3
:10138000426E0E0EBAEC05F0000E426E0F0EBAEC75
:1013900005F0000E426E0A0EBAEC05F023EC0CF0DC
:1013A00043EC09F0000E416E000E406E010EA0EC01
:1013B0000BF0000E416E000E406E020EA0EC0BF022
:1013C000000E416E000E406E030EA0EC0BF0060EF8
:1013D000436E010E426E03EC0BF0110EF9EC06F0B9
:1013E0000009D8B41200F9D7000E0001ED6F000E0D
:1013F0000001EE6F000E0001EF6F000E0001F06FB4
:101400004750441045104610D8B433D0010E0001A7
:10141000F16F07D0D890443645364636473600013E
:10142000F12B47AEF7D70001D8900001ED3700014E
:10143000EE370001EF370001F0374450405C455073
:1014400041584650425847504358D8A00AD04450BB
:10145000405E4550415A4650425A4750435A000157
:10146000ED81D89047324632453244320001F12FA7
:10147000DAD7EDC040F0EEC041F0EFC042F0F0C06E
:1014800043F01200700ED36E040ED26E400E9B6EAF
:10149000D2AEFED7000E0F01386F000E0F01396F6C
:1014A000000E0F013A6F000E0F013B6F000E0F018F
:1014B0003C6FB00E0F01426F300EC16E830EC06ED6
:1014C000000E896E000E8A6E000E8B6E000E8C6E02
:1014D000000E8D6E000E406E0FD04050020D0001C8
:1014E000A20EF324D96E0001000EF420DA6E000E75
:1014F000DE6E000EDD6E402A090E4064EED7000E4F
:10150000D56EF294F28AF1849E90000ECC6E320E6B
:10151000CD6E910ED56EF28CD08EF28E1200000E32
:10152000486E440E476E2BD04950250AD8A40DD0E2
:10153000000E466E13D047C0D9FF48C0DAFFDF5017
:10154000496E020E4726000E482240C0D9FF41C016
:10155000DAFF49C0DFFF404A412A11D042C0F6FFFE
:1015600043C0F7FF424A432A0800F5CF49F04950EB
:10157000000AD8B40FD0630AD8B4DDD7E6D742C08A
:10158000F6FF43C0F7FF424A432A0800F5CF49F06F
:101590004966CAD740C0D9FF41C0DAFF000EDF6EEE
:1015A0001200486E090E486401D01200F2C040F0EB
:1015B000F3C041F0F4C042F0F5C043F00A0E446EAF
:1015C000000E456E000E466E000E476EF4EC09F0FC
:1015D00040C0F2F041C0F3F042C0F4F043C0F5F077
:1015E0004850020D0001A20EF324D96E0001000E36
:1015F000F420DA6E0001F2C0DEFF0001F3C0DDFF6F
:10160000010E036E120014D042C0F6FF43C0F7FF74
:10161000F86A050EF76403D00800F55005D0F6CF40
:10162000E9FFF7CFEAFFEF5032EC0BF0424A432AD2
:1016300042C0F6FF43C0F7FFF86A050EF76403D017
:101640000800F55005D0F6CFE9FFF7CFEAFFEF50DD
:101650000009D8A4D9D70D0E32EC0BF00A0E32ECEB
:101660000BF01200416E2B50D8B418D02B50200A2A
:10167000D8B4FCD7F29E2B502C241F0B406E405048
:10168000010D0001810EF324D96E0001000EF4203B
:10169000DA6E41C0DFFF2B2AF28E1200A4A803D01D
:1016A00041C073FF1200010E2B6E000E2C6E41C064
:1016B00081F0A388120001EE00F0C00EEE6AE80689
:1016C000FDE100EE60F08D0EEE6AE806FDE100EE51
:1016D00001F02E0EEE6AE806FDE1C20EF66E180E5F
:1016E000F76E000EF86E00EE4BF010EE04F00900FD
:1016F000F5CFEEFFE550E150FAE1000EF86E000183
:1017000043EF0CF0000E406E2850295CD8B016D084
:101710002950010D0101600EF324D96E0101010E63
:10172000F420DA6EDF50406E292A2850296206D054
:10173000000E296E000E286E000E2A6E4050120018
:10174000426E4204D8A403D040C0BEFF12004250F3
:10175000020AD8A403D040C067FF12004250030A17
:10176000D8A403D040C05EFF12004250040AD8A49F
:10177000120040C058FF1200406E090E406402D0B3
:10178000000E12004050020D0001A20EF324D96E8B
:101790000001000EF420DA6EDE50DD10D8B402D065
:1017A000000E1200010E120004000FD04006D8A057
:1017B0004106040E436E100E426E03D04206D8A0BE
:1017C000430643504210D8A4F9D741504010D8B432
:1017D0001200ECD7FAC0F2F0FBC0F3F0FCC0F4F05A
:1017E000FDC0F5F0020E18EC08F07086240E726E43
:1017F000900E716EA38AA398A588A58A120023EC87
:101800000CF0010E426E0F0EBAEC05F0000E416EA8
:10181000960E406ED4EC0BF0000E426E0F0EBAEC3A
:1018200005F01200426E42C040F0010E416E402AA7
:1018300002D0D8904136402EFCD74150436E4350E1
:101840000F0138131200010E446E010E13EC03F069
:10185000010E446E020E13EC03F0010E446E180EDE
:1018600013EC03F01200000E446E010E13EC03F0B3
:10187000000E446E020E13EC03F0000E446E180EC0
:1018800013EC03F0120042EC0AF09DEC09F00400A6
:101890004FEC0CF0B3EC08F065EC0CF0F8D7019EBF
:1018A00001A012000190018E1200F09266EC0CF083
:1018B0001200F09067EC0CF01200F29268EC0CF061
:1018C00012000A643C0C2850120012001200120090
:0218D000120004
:020000040020DA
:08000000FFFFFFFFFFFFFFFF00
:020000040030CA
:0E000000FF251F3FFFBF85FF0FC00FE00F4021
:00000001FF
